:020000040800F2
:1000000040DD002065010008CD0F0008010F000849
:10001000C90F000847040008A13B000800000000C9
:100020000000000000000000000000000531000892
:100030004B04000800000000CB0100083D3200081E
:100040007F0100087F0100087F0100087F01000890
:100050007F0100087F0100087F0100087F01000880
:100060007F0100087F0100087F0100087F01000870
:100070007F0100087F0100087F0100087F01000860
:100080007F0100087F0100087F0100087F01000850
:100090007F0100087F0100087F0100087F01000840
:1000A0007F0100087F0100087F0100087F01000830
:1000B000413300087F0100087F0100087F0100082C
:1000C0007F0100087F0100087F0100087F01000810
:1000D0007F01000845370008E53700087F01000868
:1000E0007F0100087F0100087F0100080000000078
:1000F0000000000000000000000000000000000000
:1001000000000000000000007F0100087F010008DF
:100110007F0100087F0100087F0100087F010008BF
:100120007F0100087F0100087F0100087F010008AF
:100130007F010008250600087F0100087F010008F4
:100140007F0100087F0100087F0100087F0100088F
:10015000DFF80CD000F0BAF80048004789560008D4
:1001600040DD00200648804706480047FEE7FEE7DE
:10017000FEE7FEE7FEE7FEE7FEE7FEE7FEE7FEE757
:100180006532000851010008EFF3108072B6704725
:1001900080F3108870471D484FF0FF010170002068
:1001A00080F309881A48012101701A484FF08051E4
:1001B000016062B6FEE717484FF08051016070475A
:1001C00014484FF080510160704772B6EFF3098018
:1001D00028B1203880E8F00F0F490968086000B5A1
:1001E0000E4880475DF804EB0D480E490A7802700E
:1001F00009480D490A680260106890E8F00F203045
:1002000080F309884EF0040E62B6704722ED00E0DC
:10021000CA08002004ED00E0D0080020B11F00084B
:10022000BF080020C0080020D808002072B6704720
:1002300062B67047EFF3108072B6704780F3108893
:100240007047B0FA80F0704790FAA0F0704730BF66
:10025000704720BF704740EA01039B070AD102E0C4
:1002600008C9121F08C0042AFAD203E011F8013BA2
:1002700000F8013B521EF9D27047D2B201E000F8FB
:10028000012B491EFBD270470022F6E710B5044649
:100290000846114602462046FFF7EFFF204610BDF4
:1002A00030B50B46014600202022012409E021FA46
:1002B00002F59D4205D303FA02F5491B04FA02F543
:1002C0002844151EA2F10102F1DC30BD064C074D99
:1002D00006E0E06840F0010394E807009847103416
:1002E000AC42F6D3FFF738FF389C0008589C000852
:1002F00070B58C1810F8015B15F0070301D110F8E8
:10030000013B2A1106D110F8012B03E010F8016B14
:1003100001F8016B5B1EF9D12B0706D4002301E025
:1003200001F8013B521EFBD50AE010F8013BCB1A45
:10033000921C03E013F8015B01F8015B521EF9D532
:10034000A142D7D3002070BD7047000008B59DF8CA
:100350000000009007230C4A00210C4801F0ECFB40
:1003600000906A460AA1072001F0A6FC08230D4A66
:1003700000210D4801F0E0FB00906A460BA1082027
:1003800001F09AFC08BD0000DC0D0020E12F000800
:100390005461736B2052533233325F544F5F544376
:1003A00050000000DC0F0020993000085461736B8E
:1003B0002052533438355F544F5F5443500000008F
:1003C00008B59DF8000000900923064A0021064860
:1003D00001F0B2FB00906A4604A1092001F06CFC18
:1003E00008BD0000DC110020293300085461736B44
:1003F000205443505F5345525645520010B5FFF705
:10040000DFFFFFF7A3FF10BD7047704710B500F086
:1004100019FC00F0C3FD00F075FD03F04FFA052054
:1004200002F0FAFF02F026F801F05AFBFFF7E6FFB0
:1004300000BF00231A460121184601F0FDFDF8E730
:1004400070477047704700BFFEE770470149486139
:10045000704700000090024029B1064AD269024369
:10046000044BDA6104E0034AD2698243014BDA614A
:10047000704700000090024030B10749896941F09F
:100480000201054A916105E00349896921F00201F1
:10049000014A9161704700000090024030B500248D
:1004A000104D286000BF18E000EB04134FF000452A
:1004B0001D6044F2F0555D60C4EB441505EB8415F6
:1004C00001EB05159D60551EA54204D900EB0415EE
:1004D0001035DD6000E0D860641C9442E4D3024D26
:1004E000E86030BD800800200090024021B14268E1
:1004F00022F00042426003E0426842F00042426063
:100500007047000030B10749896941F40051054A3C
:10051000916105E00349896921F40051014A916123
:10052000704700000090024030B500240F4D286055
:1005300000BF15E000EB04134FF480151D60C4EB01
:10054000441505EB841501EB05159D60551EA5426C
:1005500004D900EB04151035DD6000E0D860641CA0
:100560009442E7D3024D286130BD00007C08002092
:100570000090024010B50121880302F0D3FB002156
:100580004FF4804002F0CEFB10BD0021014600E098
:10059000491E0029FCD170470348806940F480104F
:1005A00001498861704700000090024001480068DE
:1005B000806870477C08002001460868C0F30D4041
:1005C0007047000000B500220F480068006810F076
:1005D000004F16D10C480068006810F4004F10D18D
:1005E00009480068006810F4807F0AD00648006857
:1005F000006810F4007F04D003480068FFF7DCFFB8
:100600000246104600BD000080080020002004497A
:10061000096811F0010F01D0012000E000207047AF
:100620000090024010B5FFF7AFFD04460C4800787B
:10063000401C0B4908702046FFF7AAFD02E009485C
:1006400003F07EFFFFF7BEFF0028F8D14020FFF740
:10065000FDFE4FF48030FFF7F9FE00F06FFE10BD95
:10066000BD080020A49F00202DE9F04786B0044675
:100670000D4600260027B046DFF81092B2468448A7
:10068000076927F01C0701A802F09CFBDDF8089021
:100690008048814505D38048814502D247F008074C
:1006A00009E07D48814505D37848814502D247F06D
:1006B0000C0700E000BF764807614FF400420021BC
:1006C000284600F041FA18B9002006B0BDE8F087CE
:1006D0007248FFF75AFF2068002840D000BF0AF197
:1006E000010A0121284600F021F910F0040F02D17F
:1006F0006B488245F3D300BF4FF0000A4FF480529D
:100700000021284600F020FA08B90020DDE700BFEC
:100710000AF1010A0121284600F008F910F0200F23
:1007200002D15F488245F3D300BF4FF0000A102189
:10073000284600F0FBF8064616F0040F03D04FF4ED
:100740000060206201E00020206216F0020F02D05B
:100750000020606116E04FF48040606112E0206A82
:10076000C0F3CF006169C1F34F0140EA01020021EB
:10077000284600F0E9F908B90020A6E76FF07F40AD
:10078000FFF703FF4248076846480740D4E90101E4
:100790000843E16808432169084361690843A16986
:1007A0000843E1690843216A0843616A0843A16A72
:1007B0000843E16A0843216B0843616B0843074320
:1007C00033480760D4E90E010843216C0843616C8B
:1007D0000843A16C0843E16C0843216D0843616D37
:1007E00008432B494860A06D8860E06DC8600846EA
:1007F00087694FF641700740D4E9181040EA01407C
:10080000A16E0843E16E0843216F0843616F0843FE
:1008100007431F488761D4E91E0108431C49C8618A
:100820002148876921480740D4E920010843D4F8CA
:1008300088100843D4F88C100843D4F8901008436B
:10084000D4F894100843D4F898100843D4F89C10B6
:100850000843D4F8A0100843074313488761D4E93C
:1008600029010843D4F8AC100843D4F8B010084369
:10087000D4F8B41040EA8100D4F8B810084340F42A
:1008800000000949086001201FE70000008793036A
:1008900000800240002D3101C00E1602FFFF0F0044
:1008A000FFFF04000F8120FF00900240233FDEF88D
:1008B00010B50B794C7943EA0422094B03441A64BE
:1008C000CB781B068C7843EA04434C7843EA042334
:1008D0000C7843EA0402024B03445A6410BD000042
:1008E0000080024030B10749096841F00401054A1F
:1008F000116005E00349096821F00401014A116013
:10090000704700000080024030B10749096841F09B
:100910000801054A116005E00349096821F0080152
:10092000014A1160704700000080024010B5024685
:10093000002300240B48036903F01C034FF47840A4
:1009400000EAC22003434FF4F86000EA8110034339
:1009500023F0020343F0010302480361406980B2BF
:1009600010BD0000008002401EB500216C46002230
:100970001346944684E80C10214A1268126812F05B
:10098000004F10D0002200921E4A526912F0800FD0
:1009900004D080221B4B5A6100229A606A461CCA0E
:1009A00080E81C001EBD164A1268126812F4004F3F
:1009B00016D1134A1268126812F4807F10D0104AC0
:1009C0001268126812F4007F0AD00D4A1268126889
:1009D000C2F30D42111F0A4A12689268019200E0A8
:1009E00000210091064A12680292054A1268D268F4
:1009F000034B1A606A461CCA80E81C00D2E700005C
:100A000080080020009002400348006840F0010088
:100A100001490860704700000090024000B50120C5
:100A2000FFF772FFFFF7B8FD0120FFF75BFF012022
:100A3000FFF768FD0120FFF71FFD00BD00210160E9
:100A400041608160C160016141618161C161016298
:100A500041628162C162016341638163C16340217C
:100A600001642021416400218164C1640165416504
:100A70008165C16501668021416600218166C1668C
:100A8000016741678167C1674FF08061C0F88010DE
:100A90004910C0F884104910C0F88810C910C0F877
:100AA0008C100021C0F89010C0F89410C0F8981075
:100AB000C0F89C10C0F8A0104FF00071C0F8A4104E
:100AC0000021C0F8A8104FF40031C0F8AC10491252
:100AD000C0F8B0100021C0F8B410C0F8B8107047CA
:100AE000014617480068006810F0004F01D0002050
:100AF0007047C1F30C00124A126850601048006839
:100B0000006840F040500E4A126810600C480068BF
:100B1000006840F000400A4A1268106009484069C5
:100B200010F0040F04D00420064A506100205060E9
:100B300003480068C068024A10600120D8E700003E
:100B40007C0800200090024030B5034600240025B8
:100B50001248046904F01C044FF4784000EAC320F2
:100B600004434FF4F86000EA8110044344F00204A7
:100B700044F0010409484261046100BF6D1C07484C
:100B8000046914F0010F02D005488542F6D30448E9
:100B9000854201D1002030BD0120FCE700800240E9
:100BA000FFFF040000B5AFB0012000F0D3F84FF410
:100BB000004002F0F7F9012002F0EEF900BF3D20FD
:100BC00002F0C6F90028FAD00B2002F0DFF9FFF797
:100BD000D1FCFFF719FF00BFFFF718FD0128FBD07C
:100BE0006846FFF72BFF01200090002007904FF48C
:100BF00000700A9000200B900E90119013901490AA
:100C0000159020904FF0007021900011239000204B
:100C10002590269004202890C005299040122A9003
:100C200080012B9040122C9040002E9001216846AC
:100C3000FFF71AFD01210248FFF70EFC2FB000BD9F
:100C40004000010008B501214FF4E03002F05AF8ED
:100C500001217D2002F096F80420ADF80000032069
:100C60008DF8020018208DF803006946354800F021
:100C700077F80620ADF8000003208DF80200182058
:100C80008DF803006946304800F06AF843F62010FA
:100C9000ADF8000003208DF8020018208DF8030045
:100CA00069462A4800F05CF801214FF0201000F05E
:100CB000DDF80B20ADF8000003208DF802000420C1
:100CC0008DF8030069461F4800F04AF84FF4806031
:100CD000ADF8000003208DF8020004208DF8030019
:100CE00069461A4800F03CF80820ADF800000320DF
:100CF0008DF8020004208DF803006946124800F0C8
:100D00002FF84FF4F850ADF8000003208DF80200E2
:100D100004208DF8030069460D4800F021F84FF4D7
:100D20008070ADF8000003208DF8020018208DF8C7
:100D300003006946034800F013F8FFF733FF00F0A3
:100D400046F908BD0008014000100140000C0140B8
:100D5000001401400149086070470000DC00204297
:100D6000F0B500220023002400250026002791F87A
:100D700003C00CF00F0291F803C01CF0100F03D059
:100D800091F802C04CEA0202B1F800C01CF0FF0F5B
:100D900031D0066800242BE04FF0010C0CFA04F56A
:100DA000B1F800C00CEA0503AB4220D1A5004FF01A
:100DB0000F0C0CFA05F7BE4302FA05FC4CEA0606D6
:100DC00091F803C0BCF1280F06D14FF0010C0CFACA
:100DD00004FCC0F814C00AE091F803C0BCF1480F4D
:100DE00005D14FF0010C0CFA04FCC0F810C0641CD3
:100DF000082CD1D30660B1F800C0BCF1FF0F34DD80
:100E0000466800242EE004F1080C4FF0010E0EFAA3
:100E10000CF5B1F800C00CEA0503AB4221D1A500E6
:100E20004FF00F0C0CFA05F7BE4302FA05FC4CEA32
:100E3000060691F803C0BCF1280F05D104F1080C97
:100E40000EFA0CFEC0F814E091F803C0BCF1480F94
:100E500007D104F1080C4FF0010E0EFA0CFEC0F899
:100E600010E0641C082CCED34660F0BDF0B5002223
:100E700000230024002500F00046B6F1004F02D107
:100E80001C4EF46901E01B4E7468C0F3034582B246
:100E900000F44016B6F5401F08D124F07064154EDA
:100EA000766826F07066134F7E6012E000F48016BC
:100EB000B6F5801F06D1032606FA05F39C4344F0DD
:100EC000706406E0460D360102FA06F6B44344F0BB
:100ED000706421B1460D360102FA06F6344300F083
:100EE0000046B6F1004F02D1024EF46101E0014E1E
:100EF0007460F0BD000001404161704701617047BE
:100F000000BFFEE700B589B01DA103C9CDE904010A
:100F100005F06CFB04F012FC04F07EFD002005F0EF
:100F200003FC039003A9184808F01AFB039805F086
:100F300009FC039805F0F0FB144803F038FC089016
:100F40006FF0FF0003F033FC07901048FB3803F00C
:100F50002EFC069004A802F05BF90D4B0D4A00210F
:100F60008DE80E0006AB07AA08A90B4804F0DAFDCD
:100F7000094804F025FE084804F078FE09B000BDD9
:100F8000000000000001000035370008FC01A8C087
:100F9000AD950008FD440008A49F002008B501217C
:100FA000402001F0EFFE3C20ADF8000003208DF85A
:100FB000020010208DF8030069460248FFF7D0FEBA
:100FC00008BD00000018014000BFFEE7704708B5EB
:100FD00000214FF0006000F0A1F84FF4A06000F095
:100FE00093F83D208DF8000000208DF801008DF869
:100FF000020001208DF80300684600F04BF8142031
:101000008DF8000001208DF8010000208DF802000D
:1010100001208DF80300684600F03CF840208DF870
:10102000000002208DF8010000208DF80200012050
:101030008DF80300684600F02DF825208DF800009B
:1010400003208DF8010000208DF8020001208DF8AA
:101050000300684600F01EF826208DF800000420EA
:101060008DF8010000208DF8020001208DF80300AA
:10107000684600F00FF81C208DF8000001208DF864
:1010800001008DF802008DF80300684600F002F8B8
:1010900008BD000070B5002100230F22C4780CB3F6
:1010A000164C246804F4E064C4F5E064210AC1F13C
:1010B0000403CA40447804FA03F1847814402143BD
:1010C00009010F4C0678A155047804F01F0501248E
:1010D000AC4005786D114FF0E02606EB8505C5F8AC
:1010E000004109E0047804F01F040125A540054CE7
:1010F0000678761144F8265070BD00000CED00E033
:1011000000E400E080E100E002490143024A11608E
:10111000704700000000FA050CED00E0024A0A40AA
:101120000243024B1A60704780FFFF1F08ED00E08A
:101130001D481E481E481F481F4820482048214877
:101140002148224822482348234824482448254847
:101150002548264826482748274828482848294817
:1011600029482A482A482B482B482C482C482D48E7
:101170002D482E482E482F482F48304830483148B7
:101180003148324832483348334834483448354887
:101190003548364836483748374838483848394857
:1011A000394800BF70470000A4990008A8990008BA
:1011B000AE990008B0990008AC990008B2990008EF
:1011C000B4990008B6990008B8990008BA990008BF
:1011D000BC990008BE990008C0990008C29900088F
:1011E000C4990008C6990008C8990008CA9900085F
:1011F000CC990008CE990008D0990008D29900082F
:10120000D4990008D6990008D8990008DA990008FE
:10121000DC990008DE990008E0990008E2990008CE
:10122000E4990008E6990008E8990008EA9900089E
:10123000EC990008EE990008F0990008F29900086E
:10124000F4990008F6990008FA990008FC9900083A
:10125000FE990008009A00085C290020DC2C002080
:10126000049A0008069A0008089A00080A9A0008DA
:101270000C9A00080E9A0008109A0008129A0008AA
:10128000149A0008029A0008169A00082DE9F04105
:1012900004460D46164600271CB904203070BDE8F0
:1012A000F08115B90C203070F9E71148007810B1C1
:1012B00012203070F3E72078012808D0022807D0E8
:1012C000032802D0042804D100E000BF00BF00BF03
:1012D00002E001203070E2E700BFFEF755FF07464D
:1012E00065613846FEF754FF00203070D7E70000F4
:1012F000BD08002010B500F019F801F02DFA01F03A
:1013000055FA01F075FA01F0F7F901F0C9F901F0A9
:1013100013FB01F03DFB01F0ABFA01F0D1FA00F054
:101320006DFF00F009F8FFF703FF10BD0020014931
:1013300008807047A00800207047000010B5002406
:101340001A480078012830D1FEF71EFF04461848DD
:10135000007820B116480078401E154908701448DE
:101360000078F8B913480078E0B901F073FB12482F
:101370001249097850F82100114908600F48007897
:101380001049097888420DD00D480068C06B401C98
:101390000B490968C8630C480068401C0A4908608A
:1013A000FEF70EFF2046FEF7F3FE10BDCA08002030
:1013B000BD080020BE080020F41F0020C008002047
:1013C000D8080020BF080020A40800202DE9FC5FF9
:1013D00004460D4616461F460020009024B96220A0
:1013E00038700020BDE8FC9F14F0030F03D062208A
:1013F00038700020F6E7022D03D25B203870002001
:10140000F0E7042E03D25C2038700020EAE7FEF7F4
:10141000BBFE00901948D0F80080006820B1174842
:1014200000684068154908600098FEF7B1FEB8F101
:10143000000F03D15A2038700020D3E7A246A146FE
:10144000681E01904FF0000B05E0B144CAF800900F
:10145000CA460BF1010B01988345F6D30020CAF868
:101460000000C8F80040C8F80440C8F81050C8F898
:101470000C50C8F8086038704046B3E7E408002014
:101480002DE9F04104460D46002724B9602028705C
:101490000020BDE8F081FEF777FE0746206960B1C5
:1014A0006668306860602069401E20613846FEF73B
:1014B0006FFE002028703046EBE73846FEF768FEE6
:1014C0005D2028700020E4E770B504460D46002634
:1014D0000CB9602070BD0DB95F20FBE7FEF754FE2C
:1014E0000646D4E90310884204D33046FEF750FE86
:1014F0005E20EFE76068286065602069401C20611D
:101500003046FEF745FE0020E4E700002DE9F041FB
:1015100004460D464FF000082148007810B1002025
:10152000BDE8F081FEF730FE80461E480668006880
:1015300020B11C48006840681A4908604046FEF720
:1015400027FE002E29D0FEF71FFE804616480768AA
:10155000D7B100680068144908604046FEF718FEDD
:101560007C6004EB8500B860FC603C61BD820020BB
:10157000F882022030700020308177600BA070610B
:10158000304601F07FF808E00648006870600548C2
:1015900006604046FEF7FCFD00263046C0E700002E
:1015A000BD080020A8080020E80800203F00000037
:1015B0002DE9F04704460D4616464FF0000924B9C0
:1015C000042030700020BDE8F0872078022803D086
:1015D000012030700020F6E74248007818B1022060
:1015E00030700020EFE74048007818B10D203070CF
:1015F0000020E8E7FEF7C8FD8146D4F80480B8F87B
:101600001600D8B1D8F81010081DC8F810000F68DF
:10161000B8F81600401EA8F81600D8F80810D8F838
:101620001000884203D1D8F80400C8F810004846DA
:10163000FEF7AEFD002030703846C4E72B48006846
:1016400090F8340040F004002849096881F834001B
:1016500000202649096881F83500244800680563A0
:10166000204600F0CDFF4846FEF792FD01F0B8F9A4
:10167000FEF78AFD81461D48006890F8350020B1CC
:1016800001280DD002280AD105E018480068476AF1
:10169000002030700DE000270E20307009E000BF00
:1016A00021461248006800F06BFF00270A203070C6
:1016B00000BF00BF00200D49096881F834000B49C4
:1016C000096881F8350009490968C861074909684E
:1016D00008620649096848624846FEF759FD3846DF
:1016E00071E70000BD080020BE080020D0080020DF
:1016F0002DE9F04104460D46002714B90420BDE849
:10170000F0812078022801D00120F8E7FEF73CFDA7
:101710000746A07A60B1002304222946204600F043
:10172000DBFE3846FEF734FD01F05AF90020E6E70B
:101730006668F08AB18A884204DB3846FEF728FDE5
:101740001E20DCE7F168081DF0600D60F08A401C87
:10175000F082D6E90210884201D17068F060384604
:10176000FEF716FD0020CAE710B500240B480078EC
:10177000012811D1FEF708FD04460948007840B958
:1017800008480078FF2804D206480078401C054924
:1017900008702046FEF7FCFC10BD0000CA080020BF
:1017A000BD080020BE08002010B5002413480078B2
:1017B000012821D1FEF7E8FC044611480078C0B1A9
:1017C0000F480078401E0E4908700846007860B93E
:1017D0000C48007828B92046FEF7DAFC01F000F941
:1017E0000AE02046FEF7D4FC06E02046FEF7D0FCD7
:1017F00002E02046FEF7CCFC10BD0000CA08002025
:10180000BE080020BD08002070B504460026104820
:10181000007808B1002070BDFEF7B6FC06460D4802
:101820000568006820B10B480068406809490860F5
:101830003046FEF7ADFC4DB1032028702C8100200E
:10184000686005A06861284600F01CFF2846E2E7B2
:10185000BD080020A80800203F0000002DE9F04747
:1018600004460D4616464FF0000924B90420307096
:101870002046BDE8F0872078032803D0012030708F
:101880002046F6E72B48007818B10F20307020462C
:10189000EFE7FEF779FC8146A07A08B1012700E066
:1018A000002715B1012D3AD119E08FB922A060614E
:1018B00000202070214800686060002020811F48BF
:1018C00004604846FEF764FC00203070804605E066
:1018D0004846FEF75DFC49203070A04626E005E052
:1018E000002301221946204600F0F6FDA07A0028C8
:1018F000F6D111A06061002020701048006860607F
:10190000002020810D4804604846FEF741FC012F6D
:1019100001D101F065F800203070804606E04846AD
:10192000FEF736FC07203070A04600BF00BF4046DF
:101930009FE70000BD0800203F000000A80800202D
:101940002DE9F04104460D46164600271CB9042037
:101950003070BDE8F0812078032802D0012030707B
:10196000F7E73248007810B102203070F1E73048D4
:10197000007810B10D203070EBE7FEF705FC07464C
:10198000208940B12089401E20813846FEF700FCA6
:1019900000203070DDE72748006890F8340040F000
:1019A00001002449096881F83400002021490968B0
:1019B00081F835001F4800680563204600F020FECE
:1019C0003846FEF7E5FB01F00BF8FEF7DDFB0746B6
:1019D0001848006890F8350020B1012809D0022885
:1019E00006D102E0002030700BE00E20307008E0DD
:1019F00000BF21460F48006800F0C2FD0A20307089
:101A000000BF00BF00200B49096881F83400094974
:101A1000096881F8350007490968C86105490968FE
:101A200008623846FEF7B4FB93E70000BD080020CB
:101A3000BE080020D008002070B5044600250CB96F
:101A4000042070BD2078032801D00120F9E7FEF7BB
:101A50009BFB0546A07A60B100230122194620466F
:101A600000F03AFD2846FEF793FB00F0B9FF002096
:101A7000E7E720894FF6FF71884207D22089401C92
:101A800020812846FEF784FB0020DAE72846FEF78F
:101A90007FFB3320D5E7000010B50B48007890B9E4
:101AA00000F0D8FF0948007809490870094807493B
:101AB000097850F82100084908600846006807497D
:101AC0000860FEF768FB10BDCA080020C0080020AF
:101AD000BF080020F41F0020D8080020D0080020F4
:101AE00010B50024022000F067FAFEF74DFB044613
:101AF00000200B4908602046FEF74AFB0A2000F050
:101B00005BFAFEF741FB044605480068054908609A
:101B10000120054908702046FEF73AFB10BD000081
:101B2000CC080020B4080020BC08002010B50446F2
:101B30002046FEF709FC10BD2DE9FE4F04460D4678
:101B4000164698464FF00009B8F13F0F02D92A20F7
:101B5000BDE8FE8FFEF718FB81461E48007820B1D5
:101B60004846FEF715FB3C20F2E71B4850F82800DA
:101B700058BB0120184941F828004846FEF708FBE9
:101B8000002332462946204600F062F982460023AF
:101B9000009301931A4651464046029300F070FFAD
:101BA000074637B90D48007801280CD100F018FF1E
:101BB00009E0FEF7E9FA81460020074941F82800CC
:101BC0004846FEF7E5FA3846C2E74846FEF7E0FA2F
:101BD0002820BDE7BD080020F41F0020CA0800200F
:101BE0002DE9F04F87B004460D4616461F46DDE945
:101BF00012ABDDE91089002004903F2F03D92A2081
:101C000007B0BDE8F08FFEF7BFFA049022480078D5
:101C100020B10498FEF7BCFA3C20F1E71F4850F8C9
:101C20002700002832D101201C4941F827000498E0
:101C3000FEF7AEFA51464846149A01F055F832467E
:101C400029462046149B00F003F90690149BCDE929
:101C500000AB029343464A463846069900F010FF0F
:101C60000590059830B90E48007801280CD100F095
:101C7000B7FE09E0FEF788FA04900020074941F812
:101C800027000498FEF784FA0598B9E70498FEF750
:101C90007FFA2820B4E70000BD080020F41F0020D0
:101CA000CA08002010B504462046FEF7ADFB10BD63
:101CB00010B5FEF7AAFB10BD2DE9F04104460D4614
:101CC00016464FF000083F2C05D9FF2C03D02A20E0
:101CD0003070BDE8F08115B90C203070F9E7144878
:101CE000007810B112203070F3E7FEF74DFA80460D
:101CF000FF2C03D10F48006890F836400E4850F88A
:101D000024702FB94046FEF743FA43203070E0E7D5
:101D1000012F05D14046FEF73BFA43203070D8E74B
:101D20003D654046FEF734FA00203070D1E70000F0
:101D3000BD080020D0080020F41F00202DE9F0414C
:101D400004460D4600273F2C04D9FF2C02D02A2040
:101D5000BDE8F0810DB90920FAE7FEF715FA07464C
:101D6000FF2C03D10E48006890F836400D4850F81B
:101D7000246026B93846FEF70BFA2920E8E7012E41
:101D800004D13846FEF704FA4320E1E758223146F1
:101D9000284600F0C6FD3846FEF7FAF90020D7E7DE
:101DA000D0080020F41F002010B5FEF749FB10BD3D
:101DB0002DE9F04704460D464FF0000A3F2C04D9A8
:101DC000FF2C02D02A20BDE8F0870DB90920FAE7E0
:101DD000002028606860FEF7D7F98246FF2C03D107
:101DE0001948006890F83640184850F8246026B921
:101DF0005046FEF7CDF94320E5E7012E04D15046C9
:101E0000FEF7C6F94320DEE7308A10F0010F04D157
:101E10005046FEF7BDF94520D5E74FF00008D6F84B
:101E20000C90B7685046FEF7B3F901E008F10108DD
:101E300002CF0029FAD04FEA88002860A9EB0800F9
:101E4000800068600020BEE7D0080020F41F00205A
:101E500070B5044610464FF080750560051F284692
:101E60002C606FF00105061F304635604FF01235CB
:101E7000061F304635604FF00335061F304635608B
:101E80004FF00235061F304635606D10061F304694
:101E90003560051F284629604FF01135061F304672
:101EA00035604FF01035061F304635604FF009356C
:101EB000061F304635604FF00835061F3046356046
:101EC0004FF00735061F304635604FF00635061FC8
:101ED000304635604FF00535061F304635604FF00F
:101EE0000435061F3046356070BD00002DE9F04115
:101EF00004464FF000083F2C02D14720BDE8F08196
:101F00003F2C03D3FF2C01D02A20F7E7FEF73CF942
:101F10008046FF2C05D12248006890F83640012504
:101F200008E01F48006890F83600A04201D1012562
:101F300000E000251B4850F8247027B94046FEF702
:101F400027F94820DAE7012F04D14046FEF720F9AF
:101F50004320D3E797F838601348805D97F839102D
:101F6000C943C9B20840104988550846805D40B948
:101F700097F83A00C043C0B20C49097808400B49B1
:101F8000087097F8340040F0080087F834004046A5
:101F9000FEF7FEF8012D01D100F022FD0020ADE793
:101FA000D0080020F41F0020C2080020C108002033
:101FB00010B5FEF746FA10BD70B504460026194864
:101FC000007800B170BD1848007800B1FAE73CB362
:101FD000FEF7DAF806461548006890F838501448BD
:101FE000405D1249096891F83910C943C9B20840E7
:101FF0000F4948550846405D50B90C48006890F8B4
:102000003A00C043C0B20B4909780840094908703A
:102010000648006804633046FEF7BAF800F0E0FCBA
:10202000D0E70000BD080020BE080020D008002036
:10203000C2080020C10800202DE9F04104460D46E9
:1020400016461F461B48007810B15520BDE8F081A8
:102050001948007808B13220F8E724B91DB916B93B
:102060000FB95420F2E73B2D01D95120EEE73B2E6A
:1020700001D95220EAE7B7F57A7F01D35320E5E78B
:10208000781D642148434FF47A71B0FBF1F14FF4AD
:1020900061606043C5EB051200EB8200304400EB49
:1020A000C00202EB001001EB80084046FFF784FFFE
:1020B0000020CBE7BD080020BE08002070B5002539
:1020C000FEF762F80546034804682846FEF760F804
:1020D000204670BDEC08002070B5002600F070F8B6
:1020E000FEF752F8064630480068401C2E4908604A
:1020F0003046FEF74DF82D480078012853D12C4882
:10210000007820B1012804D0022809D103E001257C
:102110000BE0002509E0012501202549087004E0B5
:10212000012500202249087000BF00BF05B970BD1D
:102130002048046833E0FEF727F80646206B50B3CA
:10214000206B401E2063206B28BB94F8340010F0F5
:10215000370F08D014F8340F00F0C80020700120A9
:102160006070343C02E0002084F8350094F83400BC
:1021700010F0080F0FD13834A0780F4909780843C0
:102180000D49087020780D49085C6178084314F8FF
:1021900038190A4A505464693046FDF7F9FF94F83B
:1021A00036003F28C7D1C2E7EC080020CA0800204B
:1021B000E0080020DC080020C1080020C208002040
:1021C00010B5FEF73FF907480088401C0549088014
:1021D000084600880A2803D30020088000F004F88D
:1021E00010BD0000A008002010B503480068FFF7EC
:1021F00023FC0446204610BDFC080020F8B54FF42F
:102200002071284800F084FB4021274800F080FB23
:10221000002414E0601C87B204EB8400214901EB28
:10222000C00507EB870001EBC00664202870002082
:1022300085F82500EE601DA02862601C84B20F2C7A
:10224000E8D304EB8400174901EBC0056420287033
:10225000002085F82500E86014A0286200201449B9
:102260000860144908801020134908800D4813495C
:1022700008600120FFF7C8FA114908600020FFF745
:10228000C3FA104908606A460FA10D480068FEF7BE
:10229000FDFF6A4611A10B480068FEF7F7FF00F04A
:1022A00027F8F8BD5C290020DC2C00203F0000004E
:1022B000F4080020F2080020F008002000090020A7
:1022C000F8080020FC08002075432F4F532D494982
:1022D00020546D724C6F636B0000000075432F4FEC
:1022E000532D494920546D725369676E616C00002B
:1022F00000B587B00323002240210B48CDE903231A
:10230000CDE901014FF6FD7300933D2300F1FC027E
:1023100000210648FFF764FC06AA05A13D20FFF74F
:10232000CBFC07B000BD0000DC2B0020AD23000873
:1023300075432F4F532D494920546D720000000002
:1023400070B5032580F82550012905D1154EC569C2
:102350003668354445610CE085692DB9114EC56973
:1023600036683544456104E00E4E8569366835446B
:102370004561456905F007030B4D05EBC30425686E
:102380002DB920600025C5600125A58006E02268E2
:102390002060C2601061A5886D1CA58000250561C4
:1023A00070BD0000F4080020DC2C00202DE9F8436B
:1023B00000BF00BF6A4600211A480068FFF7C0FA54
:1023C000FFF7D2F918480068401C17490860084612
:1023D000006800F00707154800EBC708D8F8004070
:1023E0001AE0E568104960690968884213D12046FF
:1023F00000F01EF894F82400022804D101212046A0
:10240000FFF79EFF02E0022084F82500666816B1FF
:102410002046A168B0472C46002CE2D1FFF7C4F952
:10242000C8E70000FC080020F4080020DC2C002095
:1024300030B5456905F007040D4D05EBC4031D6873
:10244000854205D1C168196039B100250D6104E0EC
:102450000169C268CA6002B11161012580F8255086
:102460000025C56005619D886D1E9D8030BD000002
:10247000DC2C0020154909686422B1FBF2F0B0F1B0
:10248000807F01D301211CE020F07F41491E4FF0E5
:10249000E022516100BF5117002905DA0F2109011F
:1024A0000B4A0B23D15404E00F210901094A5317A9
:1024B000D15400BF00214FF0E0229161072111614A
:1024C000002109B100BFFEE7704700008C08002022
:1024D00018ED00E000E400E02DE9F04F04460D4661
:1024E00016461F46A07A224911F8009004F10B000D
:1024F00010F8090011F800A00AEBC90000F0FF0B6A
:102500001C4850F82B800020C8F83000C8F8245030
:1025100098F83400F143C9B2084088F8340088F8CC
:10252000357098F8340010F0080F0FD198F83A0081
:1025300011490978084310490870104810F809003B
:1025400098F8391008430D4901F809002146404622
:1025500000F016F8D8F8200030B14046D8F8201026
:1025600000F026F8C8F81C405846BDE8F08F00007F
:10257000189A0008F41F0020C1080020C20800209B
:1025800010B590F8382001F10B039C5C90F83930BD
:10259000DB43DBB21C4001F10B039C549B5C33B961
:1025A0008B7A90F83A40E443E4B223408B7210BD3A
:1025B000F0B510F8384F8578467838380A46114615
:1025C000136819E003F10B073F5D6FEA060C0CF08E
:1025D000FF0C07EA0C0703F10B0C0CF804706746BC
:1025E0003F5D3FB99F7A6FEA050C0CF0FF0C07EADC
:1025F0000C079F72121D1368002BE3D1F0BD000081
:1026000010B51D4A1268D0611B4A126892F8383022
:1026100000F10B02D35C184A126892F83920134378
:10262000154A126892F8384000F10B021355827A6D
:10263000114B1B6893F83A301A4382720E4A1268A3
:1026400092F838100D4A525C0B4B1B6893F83930E6
:10265000DB43DBB21A40094B5A541A46525C52B95A
:10266000054A126892F83A20D243D2B2044B1B7842
:102670001A40034B1A7010BDD0080020C208002079
:10268000C108002000228272002105E0002300F131
:102690000B0253544A1CD1B20829F7D370470000EB
:1026A0002DE9F0415021114800F032F900240DE0ED
:1026B000601C85B20D4800EB041600EB05170020E6
:1026C000307077600AA0F060601C84B2042CEFD3F5
:1026D000064800EB041600203070706004A0F06023
:1026E000024804490860BDE8F0810000241E002073
:1026F0003F000000AC08002070B54FF4F0711348A3
:1027000000F006F9002311E0581C86B203EB4300E9
:102710000E4901EBC00406EB460001EBC0050020AA
:10272000207065600AA06061581C83B2132BEBD344
:1027300003EB4300054901EBC004002020706060FA
:1027400003A0606108460349086070BD441C002076
:102750003F000000A808002000200A4908600A493C
:1027600008700A4908700A4908700A4908700A493D
:1027700008600A4908600A4908600A4908600A496D
:1027800008707047EC080020BD080020BE0800203B
:10279000CB080020CA080020A4080020CC08002094
:1027A000B8080020B4080020BC08002000210A4A14
:1027B0001170002004E00021084A1154411CC8B2E5
:1027C0000828F8D30021064A1170064A1170064AFB
:1027D0001160064A11607047C1080020C20800203D
:1027E000BF080020C0080020D8080020D008002022
:1027F00070B54FF4F261194800F08AF84FF4807117
:10280000174800F085F8002313E0581CC4B203EB0E
:10281000430000EBC300114901EBC00504EB440089
:1028200000EBC40001EBC0066E610EA02865581CC9
:10283000C3B2152BE9D303EB430000EBC3000749F8
:1028400001EBC0050020686106A02865002006494C
:10285000086002480549086070BD0000F4200020AF
:10286000F41F00203F000000DC080020D4080020F6
:1028700000B587B00323002220210B48CDE90323B4
:10288000CDE901014FF6FF7300933F2300F17C0275
:1028900000210648FFF7A4F906AA05A13F20FFF78B
:1028A0000BFA07B000BD0000741F0020F92B0008D0
:1028B00075432F4F532D49492049646C6500000032
:1028C00000B587B00323002240210B48CDE9032344
:1028D000CDE901014FF6FE7300933E2300F1FC02A7
:1028E00000210648FFF77CF906AA05A13E20FFF764
:1028F000E3F907B000BD0000741E0020212C000881
:1029000075432F4F532D49492053746174000000C3
:1029100004E0002200F8012B4A1E91B20029F8D1F0
:10292000704705E011F8013B00F8013B531E9AB2D5
:10293000002AF7D17047000070B578211148FFF7E1
:10294000E7FF00250EE005EB45000E4901EBC00452
:10295000681C00EB400001EBC00060600AA06061F1
:10296000681C85B2042DEED305EB4500054901EB4B
:10297000C0040020606004A060610846034908604C
:1029800070BD0000842800203F000000E408002003
:102990002DE9F04160211048FFF7BAFF00240DE057
:1029A000601C85B204EB44000B4901EBC00705EB4A
:1029B000450001EBC0063E60601C84B2032CEFD3DF
:1029C00004EB4400044901EBC007002038600846CE
:1029D00002490860BDE8F081FC280020E8080020DA
:1029E00010B50024FDF7D0FB044613480078F8B971
:1029F00012480078E0B900F02DF811481149097823
:102A000050F82100104908600E4800780F490978F5
:102A100088420DD00C480068C06B401C0A49096808
:102A2000C8630B480068401C09490860FDF7C3FBF8
:102A30002046FDF7ADFB10BDBD080020BE080020FC
:102A4000F41F0020C0080020D8080020BF08002084
:102A5000A40800200649074A1278885C0649095CE8
:102A6000034A515C01EBC001044A11707047000039
:102A7000189A0008C1080020C2080020C0080020E1
:102A80002DE9FC5F04460D4616461F46DDE90D9A0A
:102A9000DDF8308000200190FDF776FB01904F4873
:102AA000D0F800B0BBF1000F7ED04C49DBF8140029
:102AB00008600198FDF76CFBCBF800508BF83640AE
:102AC00000208BF834008BF83500CBF83000CBF8C1
:102AD0000490CBF80C80CBF80860ABF810A0ABF8F2
:102AE00012708BF83B00E0108BF8380004F0070000
:102AF0008BF837009BF83810012088408BF83A009B
:102B00009BF83710012088408BF839000020CBF863
:102B10001C00CBF82000CBF82800CBF82400CBF821
:102B20003C00CBF84400CBF84000CBF84800CBF891
:102B30004C002BA0CBF850000020009009E00022B0
:102B40000BF15400009940F821200098401CC0B2BD
:102B5000009000980028F2D05846FEF7E7FF58464C
:102B6000FFF7A0F8FDF710FB01901E4840F824B0D5
:102B70001D480068CBF814000020CBF818001A4854
:102B8000006818B118480068C0F818B01648C0F8B6
:102B900000B09BF83A0015490978084313490870BA
:102BA0009BF83800124900E012E0085C9BF83910ED
:102BB00008439BF838100E4A50540E480078401CC9
:102BC0000C4908700198FDF7E3FA0020BDE8FC9F6E
:102BD0000198FDF7DDFA4220F8E70000D408002054
:102BE0003F000000F41F0020DC080020C108002086
:102BF000C2080020CB08002070B5002400BF00BF31
:102C0000FDF7C2FA044605480068401C0349086005
:102C10002046FDF7BDFAFFF74BF8F1E7CC0800209E
:102C200070B5002400BF02E01420FFF7C5F91A4870
:102C300000780028F8D0194800686421B0FBF1F052
:102C4000164908600846006828B900201449087031
:102C5000FF20FFF74BF900BFFDF796FA0446114835
:102C600000681149086000200E4908602046FDF701
:102C70008FFA0D48006809490968B0FBF1F0C0F10E
:102C8000640007490870FFF78FF800F00FF80A207A
:102C9000FFF792F9E0E70000BC080020B40800202C
:102CA000B0080020CC080020B80800207CB5002621
:102CB00014E069463046FFF77BF8054665B90948D8
:102CC00050F8264044B1012C06D0D4E9020100EBB3
:102CD0008100A0640198E064701CC6B23F2EE8D960
:102CE0007CBD0000F41F002012F0010F08D012F08C
:102CF000020F05D002E0491E002308C00029FAD1C6
:102D00007047000029B1064A52690243044B5A61D8
:102D100004E0034A52698243014B5A617047000044
:102D20000010024029B1064A926A0243044B9A629B
:102D300004E0034A926A8243014B9A6270470000A2
:102D40000010024029B1064AD2690243044BDA61FD
:102D500004E0034AD2698243014BDA617047000004
:102D60000010024029B1064A12690243044B1A615D
:102D700004E0034A12698243014B1A617047000064
:102D80000010024029B1064A92690243044B9A613D
:102D900004E0034A92698243014B9A617047000044
:102DA0000010024029B1064AD2680243044BDA609F
:102DB00004E0034AD2688243014BDA6070470000A6
:102DC00000100240F0B5002100220023002400255D
:102DD000002600278C46DFF864E1DEF804E00EF000
:102DE0000C0121B1042907D0082959D109E0DFF8E5
:102DF00050E1C0F800E058E0DFF848E1C0F800E03A
:102E000053E0DFF838E1DEF804E00EF47012DFF88A
:102E10002CE1DEF804E00EF48033920C0D2A01D090
:102E2000921C00E0062233B9DFF81CE102FB0EFE23
:102E3000C0F800E033E0DFF804E1DEF82CE00EF447
:102E40008035DFF8F8E0DEF82CE00EF00F0E0EF122
:102E5000010645B9DFF8ECE0BEFBF6FE0EFB02FE14
:102E6000C0F800E01BE0DFF8D4E0DEF82CE0CEF3A1
:102E7000031E0EF10107DFF8C4E0DEF82CE0CEF30C
:102E8000032E0EF1020CDFF8BCE0BEFBF7FE0EFBDA
:102E90000CFEBEFBF6FE0EFB02FEC0F800E004E0F6
:102EA000DFF89CE0C0F800E000BF00BFDFF88CE076
:102EB000DEF804E00EF0F0010909DFF890E01EF8FA
:102EC0000140D0F800E02EFA04FEC0F804E0DFF87C
:102ED0006CE0DEF804E00EF4E061090ADFF86CE073
:102EE0001EF80140D0F804E02EFA04FEC0F808E015
:102EF000DFF848E0DEF804E00EF46051C90ADFF8BC
:102F00004CE01EF80140D0F804E02EFA04FEC0F8B0
:102F10000CE0DFF828E0DEF804E00EF44041890B15
:102F2000DFF828E00EF1100E1EF80140D0F80CE09A
:102F3000BEFBF4FEC0F810E0F0BD0000001002403F
:102F400000127A0040787D0100093D0068080020E9
:102F500010B501460022002300204A11012A02D1A7
:102F6000094C236806E0022A02D1074C236A01E0DB
:102F7000054C636A01F01F02012494401C4201D0F9
:102F8000012000E0002010BD001002400149C8717E
:102F900070470000001002400149086770470000B8
:102FA000000042420021034AD16A21F470410143EA
:102FB000D16270470010024010B5002200BF0AE045
:102FC000835C064C238000BF044B1B1F1B8813F03F
:102FD000400FF9D0521C8A42F2D310BD0444004085
:102FE00038B50120FEF710FC104908601CE06A4665
:102FF00000210E480068FEF7A3FC0D4800780D493B
:10300000087000200A4908700B4804680AE0012390
:10301000084802780949204606F022FA204604F0C2
:1030200045FEE468002CF2D1E1E700001C0000201E
:103030003C000020480800206409002040000020D7
:1030400070B504460D46002610211148FDF756FFC5
:103050000A23002211461046FEF7EEFF00BF0AE0E9
:10306000A05D0C49088000BF0A48001F008810F0CE
:10307000400FF9D0761CAE42F2D30A23002211464B
:103080001046FEF7D9FF10210148FDF735FF70BD4E
:10309000001401400438014038B50120FEF7B4FBAC
:1030A0001249086010211248FDF726FF1CE06A460D
:1030B00000210E480068FEF743FC0E4800780E49D8
:1030C000087000200B4908700C4804680AE00123CE
:1030D000094802780A49204606F0C2F9204604F061
:1030E000E5FDE468002CF2D1E1E7000020000020BB
:1030F000001401403D000020490800206409002020
:10310000E0130020704710B500F002F810BD000079
:10311000002000213A4A126842F48032384B1A608B
:1031200000BF374A126802F40031401C11B9B0F5F3
:10313000A06FF6D1324A126812F4003F01D001218B
:1031400000E0002101295AD12E4A126842F01002F3
:103150002C4B1A601A46126822F003021A601A46B3
:10316000126842F002021A60254A5268244B5A60E3
:103170001A4652685A601A46526842F480625A608F
:103180001A46D26A204B1A401D4BDA621A46D26A9E
:103190001E4B1A431A4BDA621A46126842F08062DA
:1031A0001A6000BF164A126812F0006FFAD0144A73
:1031B000526822F47C12124B5A601A46526842F44A
:1031C000E8125A601A46126842F080721A6000BF14
:1031D0000B4A126812F0007FFAD0094A526822F0B6
:1031E0000302074B5A601A46526842F002025A60C4
:1031F00000BF034A526802F00C02082AF9D1704756
:10320000001002400020024000F0FEFF44060100D2
:1032100010B5044620780849087060784870A07896
:103220008870E078C870207908716079487121460B
:103230000020FDF73DFB10BDB809002010B5FCF7DC
:10324000A3FF044606480078401C05490870204644
:10325000FCF79EFFFEF740FFFEF770F810BD000080
:10326000BD08002010B51648006840F00100144960
:1032700008600846406813490840114948600846FC
:103280000068114908400E4908600846006820F4AB
:10329000802008600846406820F4FE004860084628
:1032A000006820F0A05008604FF47F008860002084
:1032B000C862FFF728FF4FF000600449086010BDA6
:1032C000001002400000FFF0FFFFF6FE08ED00E0F6
:1032D00010B504F09BFC044640F206420F4920461C
:1032E00003F060FCFF21204604F0E4FB04460C4997
:1032F000204603F0F5FB04F089FC044640F2074247
:103300000649204603F04EFCFF21204604F0D2FB84
:1033100004460449204603F0E3FB10BDB59B0008BA
:1033200075690008DD69000810B5FFF7D1FF05E0F9
:103330000023012219461846FEF77EFEF8E700003A
:1033400070B5FCF721FF054621480078401C204954
:1033500008702846FCF71CFF0121880700F07AF965
:10336000002831D00121880700F047F8194800787B
:10337000012812D118480068401C17490860084607
:10338000006850B1012015490860002011490870FB
:1033900013480068FEF750FB0446124800780128E5
:1033A00012D111480068401C0F49086008460068A7
:1033B00050B101200D49086000200A4908700C48EE
:1033C0000068FEF739FB0446FDF7B8FF70BD00004A
:1033D000BD08002018000020400800201000002038
:1033E0001C0000200C0000204408002004000020E5
:1033F00020000020CA4302827047CA4302827047FD
:1034000021B1028842F00102028004E002884FF6F6
:10341000FE731A40028070473EB5044601210846FB
:10342000FFF790FC4FF0804000F020F8A0B2ADF81C
:10343000040042F6DF60ADF800000020ADF80600A1
:10344000ADF8020069464FF0804000F021F90121FB
:103450008807FFF7CFFF01221146900700F00BF914
:1034600001218807FFF7CCFF3EBD000010B50446E0
:103470006848844208D10121C014FFF793FC002161
:10348000E014FFF78FFCC4E0B4F1804F08D10121B4
:103490000846FFF767FC00210120FFF763FCB8E056
:1034A0005D48844208D101210220FFF75BFC002126
:1034B0000220FFF757FCACE05848844208D10121B4
:1034C0000420FFF74FFC00210420FFF74BFCA0E095
:1034D0005348844208D101210820FFF743FC002112
:1034E0000820FFF73FFC94E04E48844208D10121B8
:1034F0001020FFF737FC00211020FFF733FC88E095
:103500004948844208D101212020FFF72BFC0021EB
:103510002020FFF727FC7CE04448844208D10121A9
:103520004014FFF73FFC00216014FFF73BFC70E004
:103530003F48844209D10121C804FFF733FC002130
:103540004FF40020FFF72EFC63E03A48844209D193
:1035500001210805FFF726FC00214FF48010FFF73A
:1035600021FC56E03448844209D101214805FFF787
:1035700019FC00214FF40010FFF714FC49E02F481C
:10358000844208D101214020FFF7ECFB00214020BC
:10359000FFF7E8FB3DE02A48844208D10121802062
:1035A000FFF7E0FB00218020FFF7DCFB31E025483E
:1035B000844208D101218015FFF7D4FB0021A0151A
:1035C000FFF7D0FB25E02048844209D101210804FF
:1035D000FFF7E8FB00214FF48030FFF7E3FB18E032
:1035E0001A48844209D101214804FFF7DBFB00217E
:1035F0004FF40030FFF7D6FB0BE01548844208D1AA
:1036000001218804FFF7CEFB00214FF48020FFF753
:10361000C9FB10BD002C0140000400400008004020
:10362000000C004000100040001400400034014035
:10363000004C01400050014000540140001800407F
:10364000001C0040002000400040014000440140B8
:103650000048014030B50246002000230024158AAE
:1036600005EA0103958905EA010413B10CB10120B3
:1036700000E0002030BD10B51AB183890B4383816F
:1036800004E08389CC43A4B22340838110BD0000B1
:10369000002202881D4B98420ED01D4B98420BD041
:1036A000B0F1804F08D01B4B984205D01A4B98427E
:1036B00002D01A4B984204D14FF68F731A404B88B0
:1036C0001A43174B984207D0164B984204D04FF636
:1036D000FF431A40CB881A4302808B8883850B886E
:1036E00003850A4B98420BD0094B984208D00E4BE9
:1036F000984205D00D4B984202D00D4B984201D113
:103700000B7A03860123838270470000002C01405E
:10371000003401400004004000080040000C00405C
:1037200000100040001400400040014000440140EF
:103730000048014070B5044625462C46286802F032
:10374000FBFF70BD10B5FCF71FFD04461F48007855
:10375000401C1E4908702046FCF71AFD40F2255116
:103760001B4800F05EF918B31948001D008819497C
:10377000194A1278885418480078401C1649087075
:103780000120164908700020154908601248007889
:10379000B0F5006F07DD00200F49087001200F49C8
:1037A00008700020087040F22551094800F06AF8BE
:1037B00040F22771064800F034F920B140F2277139
:1037C000034800F05FF8FDF7B9FD10BDBD0800200B
:1037D00000380140E01300203D0000200C000020D4
:1037E0004408002010B5FCF7CFFC04461F480078C1
:1037F000401C1E4908702046FCF7CAFC40F22551C7
:103800001B4800F00EF918B31948001D008819492B
:10381000194A1278885418480078401C16490870D4
:1038200001201649087000201549086012480078E8
:10383000B0F5006F07DD00200F49087001200F4927
:1038400008700020087040F22551094800F01AF86D
:1038500040F22771064800F0E4F820B140F22771E9
:10386000034800F00FF8FDF769FD10BDBD0800200A
:1038700000440040400000203C00002018000020D0
:103880004008002010B500220023A1F510646A3C16
:1038900000D100BF0A1201249440A3B2DC4304808B
:1038A00010BD21B1828942F40052828104E08289F4
:1038B0004DF6FF731A4082817047000000B585B055
:1038C000012144F22500FFF75DFA4FF40070ADF8D6
:1038D000100018208DF8130003208DF8120004A9A1
:1038E0004548FDF73DFA4FF48060ADF81000042024
:1038F0008DF8130003208DF8120004A93E48FDF74F
:103900002FFA4FF4964000900020ADF80400ADF877
:103910000600ADF80800ADF80C000C20ADF80A0068
:103920006946364800F0CCF8012240F22551334870
:1039300000F0A1F801213148FFF7B3FF40F2266102
:103940002E48FFF79FFF01214804FFF7FBF90121F3
:103950000820FDF78BFA2020ADF8100018208DF814
:10396000130003208DF8120004A92548FDF7F8F98B
:103970004020ADF8100004208DF8130003208DF8CE
:10398000120004A91E48FDF7EBF94FF4E130009056
:103990004FF48050ADF804000020ADF806004FF45D
:1039A0008060ADF808000020ADF80C000C20ADF8E8
:1039B0000A006946134800F083F8012240F22551BD
:1039C000104800F058F801210E48FFF76AFF40F256
:1039D00026610C48FFF756FF1020ADF810000320B9
:1039E0008DF8120010208DF8130004A90448FDF78B
:1039F000B7F905B000BD00000008014000380140E3
:103A0000001401400044004002460020B1F5007F50
:103A100000D100BF13880B4201D0012000E000203C
:103A2000704770B502460023002400250020A1F550
:103A300010666A3E00D100BFC1F3421501F01F04B9
:103A4000012606FA04F4012D02D19689344006E0DD
:103A5000022D02D1168A344001E0968A34400B12BE
:103A6000012606FA03F31688334014B10BB1012086
:103A700000E0002070BDF0B50024002500260023E2
:103A8000A1F510676A3F00D100BF0346C1F342149D
:103A900001F01F05012707FA05F6012C01D10C33AF
:103AA00004E0022C01D1103300E014331AB11F6876
:103AB00037431F6002E01F68B7431F60F0BD00007E
:103AC0002DE9F04786B004460D460026002700BFCA
:103AD000B146B246A88900B100BFA246268A4CF67C
:103AE000FF700640E88806432682A6894EF6F3104A
:103AF0000640A88829890843698908430643A681A6
:103B0000A68A4FF6FF400640A8890643A68201A870
:103B1000FFF758F954461F48824501D1049F00E041
:103B2000039FA08910F4004F08D007EBC70000EBFB
:103B3000071029684900B0FBF1F807E007EBC70060
:103B400000EB071029688900B0FBF1F86420B8FB8E
:103B5000F0F006013009642101FB1089A08910F4FE
:103B6000004F09D0322101EBC9006421B0FBF1F014
:103B700000F00700064308E0322101EB0910642140
:103B8000B0FBF1F000F00F000643268106B0BDE85F
:103B9000F087000000380140C1F3080282807047BE
:103BA00000BFFEE70FB410B503A9044B044A029806
:103BB00000F018F810BC5DF814FB00006D47000819
:103BC000DC09002002E008C8121F08C1002AFAD14F
:103BD00070477047002001E001C1121F002AFBD18D
:103BE000704700002DE9FF4F8BB005469A460F46FF
:103BF0000026C3E0252872D100246D1C664AA14628
:103C000001212B78203B01FA03F0104202D004433B
:103C10006D1CF6E728782E2818D115F8010F44F00E
:103C200004042A280BD157F8049B6D1C0EE009EB05
:103C3000890002EB400001EB00096D1C01E06FF010
:103C40002F022978A1F130000928F0D928786928B5
:103C500006D00DDC002879D0632811D06428CAD1A1
:103C600001CF4FF00A0B00283ADA40422D213AE00A
:103C700073280FD07528BED101CF4FF00A0B3AE060
:103C800001CF8DF8280000208DF829000DF12808BB
:103C9000012003E057F8048B4FF0FF3061074FF02D
:103CA00000040AD500E0641C4C450EDA8442FADBBD
:103CB00018F804100029F6D107E000E0641C8442E3
:103CC000FCDB18F804100029F8D1264404E018F8A9
:103CD000010B52460D999047641EF8D24DE055E015
:103CE000210504D52B218DF80810012104E0E107FE
:103CF00001D02021F7E700210DF12C08019107E008
:103D00005946FCF7CDFAA8F1010230319046117006
:103D10000028F5D103A8A0EB080000F1200B6007F4
:103D200001D44FF001090020D94501DDA9EB0B00BA
:103D30008146002406E002A8005D52460D99904796
:103D4000761C641C01988442F5DB05E01AE0302003
:103D500052460D999047761CB9F10000A9F101096E
:103D6000F5DC05E018F8010B52460D999047761CDA
:103D7000BBF10000ABF1010BF4DC6D1C28780028CE
:103D80007FF438AF30460FB0BDE8F08F52460D9942
:103D90009047761CF1E700000928010010B50446A1
:103DA00000F026FB0022034941F2883002F050FD6A
:103DB00010BD00009D3D00082DE9FC4704460D465E
:103DC000164600BF54B900BF56A340F27D225FA142
:103DD00062A0FFF7E7FE00BFBDE8FC8700BF708967
:103DE0002A2803DA304602F00BFAF5E7D6F8048009
:103DF00008F10E07012000F0E7FC3988884215D150
:103E000040F2046000F0E0FCB98888420ED14FF423
:103E1000006000F0D9FC7988884207D140F606009E
:103E200000F0D2FCB8F80C10884203D0304602F003
:103E3000E7F9D1E7042207F10E0101A8FCF70BFA1C
:103E4000042207F118016846FCF705FA606810B90A
:103E50004FF0000A08E000986168884201D1012013
:103E600000E0002000F0FF0ABAF1000F07D00123A4
:103E700007F1080201A9204605F01AFD06E000231B
:103E800007F1080201A9204605F012FDF88800F0AC
:103E90009BFC012802D002283ED13CE0BAF1000F81
:103EA00037D0022000F090FCF880042207F10E01C8
:103EB00007F11800FCF7CFF90422211D07F10E00CD
:103EC000FCF7C9F94FF006091BE0A9F1010000F069
:103ED000FF0907F1080010F809100A3000F809106E
:103EE0000A3810F8090008F8090015F8091007F158
:103EF000080000F8091015F8091008F1060000F88C
:103F00000910B9F1000FE0DC31462046A269904764
:103F100000E000BF01E000E000BF00BF304602F05B
:103F20006FF959E72E2E5C555345525C6C776970DA
:103F30002D312E332E325C7372635C6E657469664C
:103F40005C6574686172702E630000006E65746950
:103F50006620213D204E554C4C0000004173736596
:103F60007274696F6E2022257322206661696C6508
:103F700064206174206C696E6520256420696E2060
:103F800025730A002DE9F04104460D4600BF54B9DF
:103F900000BF0FA34FF4127217A11BA0FFF702FE80
:103FA00000BFBDE8F08100BF6F6807F10E06F06842
:103FB000A1680840D4E901121140884200D0F0E71E
:103FC0000023BA1D06F10C01204605F071FCE8E75C
:103FD0002E2E5C555345525C6C7769702D312E3313
:103FE0002E325C7372635C6E657469665C657468BE
:103FF0006172702E630000006E6574696620213D59
:10400000204E554C4C000000417373657274696F0B
:104010006E2022257322206661696C6564206174BC
:10402000206C696E6520256420696E2025730A0066
:104030002DE9FC4104460D4616460E21284602F0A5
:104040000FF918B16FF00100BDE8FC81002721468F
:10405000304600F073FD08B1254F40E04FF070404E
:1040600001F01AFE316800EA01084FF0604001F0EB
:1040700013FE80451DD101208DF8000000208DF831
:1040800001005E208DF80200306801F005FEC0F3EB
:1040900006408DF80300306801F0FEFD000A8DF83F
:1040A0000400306801F0F8FDC0B28DF805006F46DD
:1040B00015E03168A0680140D4E901021040814256
:1040C00007D0E06810B104F10C0602E06FF00300C5
:1040D000BAE72A463146204600F00CF8B4E73B46E2
:1040E00004F123022946204600F05AF9ACE700000B
:1040F000BD9B00082DE9F84F04460D46164604F115
:1041000023074FF0FF3000902146284600F016FDAF
:1041100078B94FF0704001F0BFFD296800EA01094D
:104120004FF0604001F0B8FD814502D00DB1286824
:1041300018B96FF00900BDE8F88F0121284600F09A
:1041400015FA8046B8F1000F01DA4046F3E708EBB4
:1041500088004C4901EB8000807B30B9012008EBDE
:104160008801484A02EB8101887308EB88004549C1
:1041700001EB8000807B012800D02EB92946204623
:1041800000F0F8F8009000BF002E78D008EB88000F
:104190003C4901EB8000807B02280CD108EB8800B1
:1041A00001EB800000F108033A463146204600F05A
:1041B000F7F8009063E008EB8800324901EB8000DB
:1041C000807B01285BD14FF0000AB14608E099F8E6
:1041D0000C00012802D04FF0010A04E0D9F8009049
:1041E000B9F1000FF3D100BFBAF1000F14D0B9F844
:1041F00008100022032001F05BFD8146B9F1000F99
:104200000ED03146484601F08DFE48B1484601F0D7
:10421000F7FF4FF0000903E0B146484602F0D3F83B
:10422000B9F1000F2AD00A2001F028FC8346BBF127
:10423000000F1FD00020CBF80000CBF8049008EB53
:104240008800104951F8200060B108EB88010D4A40
:1042500052F8210000E0006801680029FBD1C0F895
:1042600000B004E008EB8800064941F820B00020C7
:10427000009002E0484601F0C3FF00BF00BF009875
:1042800059E70000DC9E00202DE9FF5F04460D4643
:1042900016461F46DDE90F9ADDF8388000200390AE
:1042A00000222A21032001F003FD8346BBF1000F09
:1042B00004D14FF0FF3004B0BDE8F09FDBF80400FC
:1042C000019001980E300090119800F07DFA00994D
:1042D000C880062002901AE00298401EC0B20290E8
:1042E0000298395C00980830029A8154029819F8B3
:1042F000001000981230029A81540298325C0199A1
:104300000A540298295C0198801D029A81540298EF
:104310000028E1DC0422414600980E30FBF79BFFA9
:104320000422514600981830FBF795FF012000F059
:104330004BFA009908804FF4006000F045FA0099AC
:10434000488040F2046000F03FFA0099888040F60F
:10435000060000F039FA0199888159462046A26981
:1043600090470390584601F04BFF4FF0000B039825
:10437000A1E700007FB504460D4601230649201D34
:104380008DE82300039304F12303044A19462046D1
:10439000FFF77AFF04B070BDC39B0008BD9B000807
:1043A0002DE9F04704460D4616461F46D5F8048011
:1043B0004FF006090DE0A9F1010000F0FF0917F820
:1043C000090008F8090016F8091008F1060000F8BD
:1043D0000910B9F1000FEEDC4FF4006000F0F4F9C1
:1043E000A8F80C0029462046A2699047BDE8F0874E
:1043F00010B5002446E004EB8400244901EB800062
:10440000C07B401C04EB8401204A02EB8101C8738D
:1044100004EB8400114601EB8000807B022806D16A
:1044200004EB840001EB8000C07BF0280EDA04EB83
:104430008400164901EB8000807B012820D104EB29
:10444000840001EB8000C07B022819DB04EB8400B0
:104450000E4951F8200060B104EB84010B4A52F878
:10446000210000F095F9002004EB8401074A42F88E
:104470002100002004EB8401044A02EB81018873CF
:10448000601CC4B20A2CB6DB10BD0000DC9E00200C
:104490002DE9F04104460D466668B08900F094F9B4
:1044A0000746B7F5006F04D0A7F5006006381BD1AA
:1044B00013E021462846FFF765FD6FF00D01204609
:1044C00001F0CEFE20B1204601F09AFE002403E068
:1044D0002946204600F002FC0BE0224605F12301AC
:1044E0002846FFF769FC04E0204601F089FE00241D
:1044F00000BF00BF0020BDE8F081000070B5044699
:10450000082001F04BF9054615B94FF0FF3070BD9A
:10451000E561732084F82A0074212B200155064898
:1045200060610648A06104F123002860204600F085
:10453000D1FF0020EBE7000031400008C95500081A
:1045400070B50446204601F00BF8064616B94FF048
:10455000FF3070BD214630462269904705461DB1A7
:10456000304601F04DFE00262846F2E72DE9FC5FBB
:1045700004460D460A260A27B0464FF000094FF0C0
:10458000000A00200190B3460090CCB17548007835
:1045900000EB8000744901EB8000807B02280FD182
:1045A00020687049097801EB81016F4A02EB8101B3
:1045B0004968884204D16B48007840B2BDE8FC9F4E
:1045C0004FF000097BE0B8F10A0F09D109EB89002F
:1045D000654901EB8000807B10B94FFA89F86AE0E9
:1045E00009EB8900604901EB8000807B012838D10C
:1045F00074B1206809EB89015B4A02EB81014968CB
:10460000884205D1574880F800904FFA89F0D5E7E5
:1046100009EB8900544951F8200088B109EB890061
:1046200001EB8000C17B0098814244DB4FFA89FB9B
:1046300009EB89004C4901EB8000C07B00903AE017
:1046400009EB8900484901EB8000C07B504532DB13
:104650004FFA89F609EB890001EB800090F80FA072
:1046600029E009EB8900404901EB8000807B0228AA
:1046700021D174B1206809EB89013B4A02EB810129
:104680004968884205D1374880F800904FFA89F090
:1046900094E709EB8900344901EB8000C17B019864
:1046A000814208DB4FFA89F709EB89002E4901EBBB
:1046B0008000C07B019009F1010000F0FF09B9F111
:1046C0000A0F80DBB8F10A0F02D115F0010F02D0FA
:1046D00015F0020F02D04FF0FF306FE7B8F10A0F6C
:1046E00002DA08F0FF091FE00A2F02DA07F0FF09DB
:1046F0001AE00A2E02DA06F0FF0915E0BBF10A0FF4
:104700000FDA0BF0FF0909EB8901174A52F8210073
:1047100000F03EF8002009EB8901134A42F821001D
:1047200002E04FF0FF3049E7002009EB89010E4A13
:1047300002EB8101887344B104B900E0206809EB01
:104740008901094A02EB81014860002009EB8901D7
:10475000054A02EB8101C873024880F800904FFAC5
:1047600089F02BE7AA090020DC9E002070B50446E2
:104770000D46E1B20548FFF70FFA00BF402103489C
:10478000FFF742F90028F9D0204670BD00440040F0
:1047900070B5044608E025462468686801F030FDDD
:1047A00029460A2001F02AF9002CF4D170BD0146F7
:1047B000080601F47F4240EA022001F47F0240EA49
:1047C000122040EA116070470146C8B20A0A42EA64
:1047D0000020704770B504460D462A460321204646
:1047E00000F0D7F870BD2DE9FF5F04460D46D4F800
:1047F0000480B8F8000001F055FAC0F303204FEA36
:104800008009C9F10001204601F02AFD10B9208974
:10481000042800D2B5E060680678082E7BD14FF0FE
:10482000010A4FF0704001F037FAD8F8101000EA92
:10483000010B4FF0604001F02FFA834501D14FF09A
:10484000000A294608F1100000F078F908B14FF08D
:10485000000ABAF1000F04D1204601F0D1FCBDE8F6
:10486000FF9F2089082800D28BE0204600F0DEF868
:1048700018B1204601F0C4FCF1E72421204601F0E4
:10488000EFFC20B34946204601F0EAFC00B17CE091
:1048900021890022022001F00BFA8246BAF1000FB2
:1048A00000D172E02146504601F03CFB00B16CE0C3
:1048B000DAF80480C9F1000001B2504601F0D0FCE2
:1048C00000B162E0204601F09BFC544606E06FF028
:1048D0002301204601F0C4FC00B156E06768D8F817
:1048E0000C000390D8F81000C8F80C000398C8F822
:1048F0001000002038704FF2FF70FFF765FF7988D5
:10490000884209DC4FF40060FFF75EFF401C7988A5
:104910000844788007E02EE04FF40060FFF754FF72
:10492000798808447880B8F8080001F0BBF9C0B273
:1049300040F47F4A5046FFF747FFA8F808000020E0
:10494000A8F80A001421404600F066F8A8F80A000A
:104950004946204601F084FC60B901220021FF2372
:104960008DE826000A4608F10C01204600F0A6FA60
:10497000824600BF00E000BF00BF204601F040FCBF
:104980006DE7204601F03CFC69E7204601F038FC69
:1049900065E72DE9FC4704460D4616460022242112
:1049A000012001F085F907460FB9BDE8FC87D4F86E
:1049B0000480D7F8049089F8005089F8016000203D
:1049C000A9F80400A9F8060061687A6802F10800F5
:1049D0001C22FBF740FC0020A9F802007989484618
:1049E00000F01AF8A9F8020001230022CDE9002303
:1049F000FF2308F10C020021384600F045FA384642
:104A000001F0FEFBD1E770B504460D462A460B21A6
:104A10002046FFF7BEFF70BD70B504460D4629461F
:104A2000204600F007FEC04380B270BD2DE9F04182
:104A3000044600250027264617E07189706800F0BB
:104A4000F9FD0544A8B200EB1545708900EBD07163
:104A50004910B0EB410107D0C7F10100C7B2E8B27D
:104A6000C5F3072141EA00253668002EE5D127B1BC
:104A7000E8B2C5F3072141EA0025E84380B2BDE86A
:104A8000F0812DE9F05F04460D4616461F46DDF81D
:104A900028804FF00009CB46A2461EE0BAF80A1063
:104AA000DAF8040000F0C6FD81441FFA89F000EB3B
:104AB0001949BAF80A0000EBD0714910B0EB410176
:104AC00009D0CBF1010000F0FF0B09F0FF00C9F3A2
:104AD000072141EA0029DAF800A0BAF1000FDDD180
:104AE000BBF1000F05D009F0FF00C9F3072141EA2F
:104AF0000029286880B2814428684FF6FF7101EAD6
:104B000010408144306880B28144306801EA10402E
:104B100081443846FFF758FE81444046FFF754FE73
:104B200081441FFA89F000EB19491FFA89F000EB64
:104B300019496FEA090080B2BDE8F09F30B502461E
:104B40001368D84300D00BB9012030BD91F829007B
:104B500010F0020F01D10020F7E74868984201D118
:104B60000020F2E710688C682040D1E901452C4014
:104B7000A04208D1886823EA00008D68EC43A04277
:104B800001D10120E1E70020DFE700002DE9F74F28
:104B900086B004460798B0F820B014200290022294
:104BA0000021104601F084F8054625B94FF0FF308A
:104BB00009B0BDE8F08FA5F80AB0A5F808B04648DE
:104BC00020F0030068606F68142238466168FBF7C4
:104BD00042FBF88801F066F801900198C0F30C00E0
:104BE0000590019800F400500490208914381FFAB1
:104BF00080F9ABF11400C11700EB5171C1F3CF087C
:104C000062E0ABF11400484501DB012000E0002028
:104C100080B203900598C0F30C00049908430190FA
:104C2000039818B9019840F400500190039808B116
:104C3000484601E04FEAC8001FFA80FA524607F1E1
:104C400014012046029B01F035FA0299084480B213
:104C500002900198FFF7B8FDF8800AF1140080B2C5
:104C6000FFF7B2FD78800020788114213846FFF7E5
:104C7000D3FE7881039828B109F1140081B2284647
:104C800001F06EFB00221146022001F011F80646E9
:104C900066B12946304601F031F90798436931463B
:104CA000089A9847304601F0ABFA05E0284601F033
:104CB000A7FA4FF0FF307BE7A9EB0A001FFA80F953
:104CC0000598404480B20590B9F1000F99D128466B
:104CD00001F096FA00206BE70B9700202DE9F047D2
:104CE00004460D466668308800F0DCFF0421B1EB15
:104CF000203F05D0204601F083FA0020BDE8F08770
:104D0000308800F0CFFFC0F303284FEA880870888E
:104D100000F0C8FF81466089404502DB2089484594
:104D200004DA204601F06CFA0020E7E741463046FD
:104D3000FFF772FE20B1204601F062FA0020DDE7A5
:104D40004946204601F00CFB4FF0010A2F4600BFF8
:104D5000384600F01BFF70B1381D0CD0786850B198
:104D600030697968884205D0394606F11000FFF7AE
:104D7000E5FE00B10DE0BAF1000F04D04FF0000ADB
:104D80003E48076800E03F68AF4200D13F68002F0F
:104D9000DED100BF294606F10C00FFF7CFFE60B957
:104DA0004FF0704000F078FFF16800EA010A4FF020
:104DB000604000F071FF824504D1204601F020FAE6
:104DC00000209BE727B9204601F01AFA002095E75A
:104DD00043F6FF70FFF7F8FCF188084207D0204641
:104DE00000F0FAF804460CB9002087E7666824480A
:104DF0000560244806602946204601F027FB00286C
:104E000035D1308900F04EFFC0B201280DD0062800
:104E100006D011280ED12946204604F075FC25E065
:104E20002946204602F0DAFA20E029462046FFF71C
:104E3000DAFC1BE0294606F11000FFF77FFE88B977
:104E40004FF0704000F028FF316900EA010A4FF08E
:104E5000604000F021FF824504D0666002212046B8
:104E6000FFF7B8FC204601F0CBF900BF00BF0020DF
:104E7000034908600349086040E700001809002062
:104E80009C090020A00900202DE9FE4F04460D4694
:104E900016461F46DDE90C89304600F0F3FA5FEA5A
:104EA000000A02D1001FBDE8FE8F3B46324629466C
:104EB00020468DE8000700F001F8F4E72DE9F05FE7
:104EC00004460D4616461F46DDF82C80002E69D09C
:104ED0004FF0140A1421204601F0C2F918B16FF006
:104EE0000100BDE8F09FD4F80490B9F8080000F084
:104EF000D9FE67F31F208346FFF766FCA9F8080078
:104F0000B9F8080000F0CEFE001248EA002B58461F
:104F1000FFF75AFCA9F808000EB9002000E030683D
:104F2000C9F81000D3464FEAEA710AEB9171891073
:104F30004FF4804242EA01210A9A114388B2FFF7F6
:104F400043FCA9F800002089FFF73EFCA9F8020005
:104F50000020A9F806001F480088FFF735FCA9F8D3
:104F600004001C480088401C1A4908800DB12868BC
:104F700040B90C98001D00D101E00C984068C9F8B8
:104F80000C0005E00DB9002000E02868C9F80C000D
:104F90000020A9F80A0051464846FFF73DFDA9F850
:104FA0000A0003E0D4F8049009F110060C98008C74
:104FB00050B121890C98008C814205DD3246204693
:104FC0000C99FFF7E3FD8CE70C98324621464369C4
:104FD000984786E7980900202DE9FC5F04460020E9
:104FE00000906668308800F05DFEC0F30320142155
:104FF000B1EB800F00D0B1E0F08800F053FEC004A8
:105000004FEA1049708800F04DFE8346308800F06A
:1050100049FEC0F30320ABEB80001FFA80FA204664
:1050200000F077FF01905048018801980844142847
:105030000BDD3046019900F0BFF928B14A480088DD
:1050400001990844142800DD88E04748001F0768DC
:1050500012E07869F168884209D1B86931698842FB
:1050600005D1B889B188884201D1012000E0002033
:1050700000B103E000973F68002FEAD100BF37B9C5
:105080003046019900F02EF9074697B966E0F0889E
:1050900000F008FEC004C00C0BD1F88900F002FE3D
:1050A000C004C00C05D01422314607F10800FBF7FC
:1050B000D2F82D480088019908442B490880F088CF
:1050C00000F0F0FD10F4005F06D1B87F40F0010061
:1050D000B87709EB0A00B8832146384600F046F855
:1050E000002839D0B88B1430B883786840680568D8
:1050F00078684668142207F108013046FBF7ABF8E0
:10510000B88BFFF761FB70800020F0807081142164
:105110003046FFF781FC70817C680CE0D5F8048094
:105120006FF01301284601F09BF82946204600F055
:1051300081FED8F80050002DF0D13846009900F0DB
:10514000BDF8204600F0E5FE07490988081A06491F
:1051500008802046BDE8FC9F0020FBE7204601F0C8
:105160004FF80020F6E70000A80900202DE9FE4FC7
:1051700004460D464FF00008012000906868019039
:105180000199488800F08EFD83460199088800F057
:1051900089FDC0F30320ABEB800080B2029001993F
:1051A000C88800F07FFDC0044FEA104A6E680020F6
:1051B0003060A6F804A002985044F080D4F804901F
:1051C00030E0D9F80470B088B988884213DAC6F89C
:1051D0000090B8F1000F0CD0B088B8F806108842E3
:1051E00003DBF088B988884200DD58E0C8F8005039
:1051F00000E0656019E0B088B988884200D14EE0CF
:10520000B088F988884200DA49E0B8F1000F06D08A
:10521000B8F80600B988884201D000200090D7F87D
:105220000090B846B9F1000FCBD100BFB9F1000F23
:105230000DD1B8F1000F09D0C8F80050B8F8060039
:10524000B188884203D00020009000E06560A07F14
:1052500010F0010F21D00098E0B1606840688088AC
:1052600010B10020009015E0B046D6F800900CE098
:10527000D9F80460B8F80600B188884202D000204E
:10528000009005E0B046D6F80090B9F1000FEFD1DC
:1052900000BF00BF0098BDE8FE8F0020FBE7284656
:1052A00000F037FE04490988081A03490880284697
:1052B00000F0A6FF0020EEE7A809002070B5044624
:1052C0000D4607480068A04203D1054920680860E0
:1052D00001E0206828602146052000F08FFB70BDAA
:1052E000A409002070B504460E46052000F0C6FB58
:1052F000054665B93146204600F05EF8B04203DB52
:10530000052000F0BBFB05460DB9002070BD202133
:105310002846FAF7B9FF0320E877064800682860B6
:10532000044805601422214605F10800FAF793FFAE
:105330002846EBE7A40900202DE9F04704460E4675
:1053400000276068D0F80480B8F80400A0B9656848
:10535000D8F800006060142204F108016868FAF7C8
:105360007AFF01212846FFF74EFB284600F0D1FDC9
:105370000744284600F044FF65680CE0D5F8048037
:10538000A946D8F80050484600F0C3FD07444846F7
:1053900000F036FF00BF002DF0D131462046FFF768
:1053A0008DFF04480088C01B024908803846BDE8CC
:1053B000F0870000A80900202DE9F05F04460D46A3
:1053C0004FF0000900BF0027B846BB4618480668E2
:1053D0001DE07069E168884207D1B069216988429F
:1053E00003D1B089A188884201D0012000E00020CB
:1053F00048B10BF1010B0FB9374604E0F07FF97F9C
:10540000884200DC3746306800B1B0463668002E6E
:10541000DFD12FB141463846FFF78EFF8246D14497
:10542000A94502DABBF1010FCDDC4846BDE8F09F8B
:10543000A409002010B5044600F00AF80022034930
:105440004FF47A7001F004FA10BD000035540008E2
:1054500070B500260A4804680FE0E07F002805DDEB
:10546000E07F401EE0772646246806E02546246853
:1054700031462846FFF760FF00BF002CEDD170BD1C
:10548000A409002070B50546104804680EE02046C7
:1054900000F07CFB48B12868A1680840D4E90112FB
:1054A0001140884201D1204670BD2468002CEED105
:1054B0000748006820B10648006800F067FB08B99B
:1054C0000020F1E702480068EEE70000180900201C
:1054D0001C09002070B50546062085F822001B48EF
:1054E000007885F823001948417824204155174851
:1054F0008178252041551548C1782620415513480B
:10550000017927204155114841792820415540F221
:10551000DC502884322085F8290002220C490D48ED
:10552000FBF702F804220C490C48FAF7B7FF0024F5
:1055300006E00A4901EB04100121FAF7D7FF641CC9
:10554000042CF6DBFBF76AFA70BD0000B8090020F6
:105550005CC900207CB100209CB100203CB100203F
:105560002DE9FE438146002700246846FBF7FCF93D
:10557000009886B2DDF8048003223146104600F020
:1055800097FB044664B1254608E06A8908EB0701E9
:105590006868FAF760FE688907442D68002DF4D129
:1055A0004FF00040029908600648406910F0800FF3
:1055B00004D0802003494861002088602046BDE86F
:1055C000FE830000009002402DE9F04180460C4629
:1055D00000260027FAF7EAFF0746254607E06A8912
:1055E000B8196968FAF737FE688906442D68002DF6
:1055F000F5D1B0B2FBF774FA0020BDE8F08110B528
:1056000000F0F4FF00F09AF800F006FA00F002F85B
:1056100010BD000010B5012001F086F804490860B3
:10562000012001F081F80249091D086010BD000049
:10563000D40900202DE9F04104460D460026A0467D
:105640000CE098F80000070208F1010898F8000043
:10565000074308F101083E44A81E85B2012DF0DC85
:10566000002D03DD98F8000007023E44B0B200EBC5
:105670001646300C000402D0B0B200EB1646B0B2B1
:10568000FFF7A2F8BDE8F08100B587B09DF81800DB
:105690000690FAF7CBFDFBF72DFE032300228021B5
:1056A0000B48CDE90323CDE90101012300F5FE728A
:1056B000002108480093FCF793FA069006AA06A179
:1056C0000120FCF7F9FAFCF7E7F9002007B000BD6C
:1056D000E00900200D0400085374617274205461C5
:1056E000736B000070B5054605B970BD12480068BF
:1056F000854204D31048001D0068854200D3F4E7BA
:1057000000210D480C30006800F01EFFA5F10804D0
:1057100000202071084808300068844202D2064800
:1057200008300460204600F053FE03480C30006847
:1057300001F002F8D9E700000409002010B515486F
:1057400020F0030014490860084604684FF4005034
:1057500020800020608020710846006800F500501D
:10576000091D086001200968087140030A49091DE4
:10577000096808800849091D09684880012000F06F
:10578000D3FF05490C31086003480068091F086011
:1057900010BD00001F2D0020040900202DE9F0415C
:1057A000044614B90020BDE8F081E01C20F003009D
:1057B00084B20C2C00DA0C24B4F5005F01DD00206B
:1057C000F1E700213B48006800F0BEFE3948001FA9
:1057D000006838490C390968401A85B260E03548DC
:1057E0000C38006847193879002855D1398805F1F7
:1057F0000800081AA0424FD3398805F10800091A99
:1058000004F11400814220D305F10800204486B23F
:1058100028480C38006800EB0608002088F80400CF
:105820003888A8F80000A8F802503E80012038719E
:10583000B8F80000B0F5005F09D0B8F800001D49C5
:105840000C3909680844468001E001203871194884
:10585000001F0068874218D10AE01648001F006840
:10586000008814490C39096808441249091F086066
:105870001048001F0068007938B10E48001F00680A
:105880000C49083909688842E7D10A48006800F0E5
:1058900053FF07F1080086E706480C380068455BAF
:1058A000C4F50050A8429ADC0248006800F044FFAA
:1058B000002078E7100900202DE9F04704460D4646
:1058C000E81C20F0030085B20C2D00DA0C25B5F59C
:1058D000005F02DD0020BDE8F08747480068844291
:1058E00004D34548001D0068844201D32046F2E7F6
:1058F000A4F1080940480068A9EB000087B2B9F894
:105900000000C01B083886B2B54201DD0020E2E786
:10591000B54201D12046DEE7002137480C3000684F
:1059200000F012FEB9F800003349096800EB010AE3
:105930009AF8040058BBBAF8000007F1080129449E
:105940001FFA81F82C4908310968514505D12A49C7
:1059500009684144284A083211602749096801EB67
:10596000080A00218AF80410AAF80000AAF80270B8
:10597000A9F80080BAF80010B1F5005F06D0BAF8B7
:1059800000101D4A12681144A1F802802CE005F1B4
:105990001400B04228D807F1080028441FFA80F804
:1059A0001548006800EB080A134808300068824573
:1059B00003D211480830C0F800A000208AF8040083
:1059C000B9F80000AAF80000AAF80270A9F800804F
:1059D000BAF80000B0F5005F06D0BAF8000006493A
:1059E00009680844A0F8028003480C30006800F001
:1059F000A3FE20466FE700000409002001B97047AC
:105A00000A46044B53F820301360024B43F8202021
:105A1000F5E70000304D002010B5002101E04B1CDF
:105A200099B20E29FBDB134B23F0030000211DE08C
:105A30000023104C3B3C44F8213000220EE00D4B7B
:105A40003B3B53F8213003600A4B3B3B43F82100BA
:105A5000094B33F811402044531C9AB2064B1C33B7
:105A600033F811309342EADC4B1C99B20E29DFDB8C
:105A700010BD00006B4D0020189B000870B5054656
:105A800000BF0E2D0ADB00BF0AA340F23B1212A199
:105A900019A0FEF787F800BF002070BD00BF2048A6
:105AA00050F8254024B11E49206841F8250000BF68
:105AB0002046F2E72E2E5C555345525C6C77697098
:105AC0002D312E332E325C7372635C636F72655CB2
:105AD0006D656D702E6300006D656D705F6D616C3E
